:100000000C9472000C9493000C9493000C94930045
:100010000C9493000C9493000C9493000C94930014
:100020000C9493000C9493000C9493000C94930004
:100030000C9493000C9493000C9493000C949300F4
:100040000C944B030C9493000C9493000C94930029
:100050000C9493000C9493000C9493000C949300D4
:100060000C9493000C942E050C94D0040C9436043C
:100070000C9493000C9493000C9493000C949300B4
:100080000C9493000C9493000C9493000C949300A4
:100090000C9493000C9493000C9493000C94930094
:1000A0000C9493000C9493000C9493000C94930084
:1000B0000C9493000C9493000C9493000C94930074
:1000C0000C9493000C9493000C9493000C94930064
:1000D0000C9493000C9493000C9493000C94930054
:1000E0000C94930011241FBECFEFD1E2DEBFCDBF31
:1000F00000E00CBF12E0A0E0B2E0EEE7F7E100E0C4
:100100000BBF02C007900D92A432B107D9F722E0CD
:10011000A4E2B2E001C01D92AE35B207E1F70E9441
:100120006B050C94BD0B0C940000CF93DF9300D0B3
:10013000CDB7DEB79A8389836B838B81882F90E05C
:10014000009719F0019739F14CC089819A81FC011F
:1001500080819181FC018081482F89819A81FC01F5
:100160008481282F30E081E090E002C0880F991F41
:100170002A95E2F78095242F282389819A81FC0112
:1001800080819181FC01208389819A81FC01158203
:1001900080E090E028C089819A81FC018081918172
:1001A000FC018081482F89819A81FC018481282F5C
:1001B00030E081E090E002C0880F991F2A95E2F7B5
:1001C000242F282B89819A81FC0180819181FC0157
:1001D000208389819A8121E0FC01258380E090E0E1
:1001E00002C081E090E00F900F900F90DF91CF91CF
:1001F0000895CF93DF9300D0CDB7DEB79A8389837C
:100200006B8389819A81FC018581882319F482E0BE
:1002100090E04DC08B81882F90E0009719F00197F6
:1002200019F143C089819A81FC0182819381FC018B
:100230008081482F89819A81FC018481282F30E0B8
:1002400081E090E002C0880F991F2A95E2F780951F
:10025000242F282389819A81FC0182819381FC01CA
:10026000208380E090E023C089819A81FC01828113
:100270009381FC018081482F89819A81FC018481CE
:10028000282F30E081E090E002C0880F991F2A9566
:10029000E2F7242F282B89819A81FC0182819381A6
:1002A000FC01208380E090E002C081E090E00F90AC
:1002B0000F900F90DF91CF910895CF93DF931F920E
:1002C0001F92CDB7DEB79A83898389819A81FC0119
:1002D0008581813019F48FEF9FEF16C089819A8153
:1002E000FC0182819381FC018081882F90E029812B
:1002F0003A81F9012481222F30E002C0959587953B
:100300002A95E2F7817099270F900F90DF91CF9196
:100310000895CF93DF93CDB7DEB70000DF91CF9183
:100320000895CF93DF93CDB7DEB781E890E022E464
:10033000FC0120838FE690E020E2FC012083000096
:10034000DF91CF910895CF93DF9300D01F92CDB767
:10035000DEB79A8389837C836B830E94910186E058
:1003600090E00E94F60389819A81FC01208131810D
:100370008B819C81282B392B89819A81FC013183C7
:10038000208300000F900F900F900F90DF91CF917E
:100390000895CF93DF93CDB7DEB7A4970FB6F89447
:1003A000DEBF0FBECDBF9AA389A37CA36BA389A197
:1003B0009AA1FC012081318181E090E00BA002C074
:1003C000880F991F0A94E2F7282B392B89A19AA14B
:1003D000FC013183208380E090E0A0E2B1E48983D6
:1003E0009A83AB83BC832BEA3AEA4AEA5EE36981EB
:1003F0007A818B819C810E94100BDC01CB018D8363
:100400009E83AF83B88720E030E040E85EE36981F7
:100410007A818B819C810E94100BDC01CB01898742
:100420009A87AB87BC8720E030E040E85FE36D81CE
:100430007E818F8198850E94B30988231CF481E016
:100440008D87B2C020E03FEF4FE757E469857A859A
:100450008B859C850E940B0B18160CF07BC020E04E
:1004600030E04AE754E469817A818B819C810E9463
:10047000B809DC01CB018E879F87A88BB98B20E060
:1004800030E04AE753E46E857F85888999890E9428
:10049000100BDC01CB018A8B9B8BAC8BBD8B20E0DE
:1004A00030E040E85FE36A897B898C899D890E94FE
:1004B000B30988232CF481E090E09F8B8E8B3FC0A2
:1004C00020E03FEF4FE757E46A897B898C899D895B
:1004D0000E940B0B18164CF520E030E040E251E48E
:1004E0006E857F85888999890E94100BDC01CB017C
:1004F000BC01CD010E942A0ADC01CB019F8B8E8BAF
:100500000FC089E190E0998F888F888D998D019730
:10051000F1F7998F888F8E899F8901979F8B8E8B9A
:100520008E899F89892B69F73FC06A897B898C896D
:100530009D890E942A0ADC01CB019F8B8E8B8E89BC
:100540009F899B8F8A8F8A8D9B8D0197F1F79B8F57
:100550008A8F2AC020E030E04FE753E46D817E812E
:100560008F8198850E940B0B1816ACF469857A85EB
:100570008B859C850E942A0ADC01CB019D8F8C8F84
:100580008C8D9D8D9F8F8E8F8E8D9F8D0197F1F716
:100590009F8F8E8F0FC06D817E818F8198850E9485
:1005A0002A0ADC01CB018D878D8588A388A18A95D5
:1005B000F1F788A389A19AA1FC012081318181E012
:1005C00090E00BA002C0880F991F0A94E2F7809573
:1005D00090952823392389A19AA1FC013183208396
:1005E0000000A4960FB6F894DEBF0FBECDBFDF911A
:1005F000CF910895CF93DF93CDB7DEB780912602D8
:10060000909127028133954718F080E197E216C058
:1006100080910002882319F480E197E20FC0809155
:100620002602909127029C01AFE9B6E40E94A4093A
:10063000929582958F7089279F708927DF91CF913E
:100640000895CF93DF931F921F92CDB7DEB70E941C
:10065000FA029A83898389819A818932934228F0A8
:1006600081E092E00E948A0411C08FE092E00E9433
:100670008A0489819A816AE070E00E94A9048BE172
:1006800092E00E948A048AE00E945E040F900F901C
:10069000DF91CF9108951F920F920FB60F92112400
:1006A0000BB60F922F933F934F935F936F937F936C
:1006B0008F939F93AF93BF93EF93FF93CF93DF936A
:1006C0001F921F92CDB7DEB781E890E0FC01308128
:1006D00081E890E020E42327FC01208386E890E075
:1006E000FC0180819181CC01A0E0B0E0BC01CD0192
:1006F0000E94590ADC01CB01BC01CD010E942A0AEB
:10070000DC01CB019A838983809124029091250298
:1007100029813A81A901481B590BCA0190932702EC
:100720008093260289819A819093250280932402E6
:1007300080910002823038F00E94210380910002F3
:10074000825080930002809100028F5F80930002AC
:1007500000000F900F90DF91CF91FF91EF91BF912B
:10076000AF919F918F917F916F915F914F913F9149
:100770002F910F900BBE0F900FBE0F901F901895EA
:100780000F93CF93DF9300D000D000D0CDB7DEB76A
:100790009A8389837C836B835E834D8338872F8321
:1007A000098789819A812B813C81FC0131832083D7
:1007B00089819A812D813E81FC0133832283898145
:1007C0009A812F813885FC013583248389819A8120
:1007D0002985FC012683000029960FB6F894DEBF18
:1007E0000FBECDBFDF91CF910F910895CF93DF93CF
:1007F0001F921F92CDB7DEB79A83898389819A8130
:10080000292F332785EC90E0FC01208384EC90E0D5
:100810002981FC01208381EC90E028E1FC01208308
:1008200082EC90E02EE0FC0120838AE290E0FC0163
:1008300020818AE290E02460FC0120838BE290E03A
:10084000FC0120818BE290E02460FC01208381EC9C
:1008500090E0FC01208181EC90E0286DFC01208378
:1008600000000F900F90DF91CF9108951F920F928B
:100870000FB60F9211240BB60F922F938F939F9365
:10088000EF93FF93CF93DF93CDB7DEB78BE290E08A
:10089000FC0120818BE290E02B7FFC012083000093
:1008A000DF91CF91FF91EF919F918F912F910F90B9
:1008B0000BBE0F900FBE0F901F901895CF93DF9334
:1008C0001F921F92CDB7DEB78A8380912A028F5F75
:1008D0008F708983000080912B0299819817D9F33A
:1008E0008981882F90E0845D9D4F2A81FC012083BF
:1008F000898180932A0281EC90E0FC01208181ECC7
:1009000090E02062FC01208300000F900F90DF91A7
:10091000CF9108951F93CF93DF931F921F92CDB76E
:10092000DEB79A83898303C0812F0E945E04898188
:100930009A819C012F5F3F4F3A832983FC011081EC
:10094000112391F700000F900F90DF91CF911F912D
:100950000895CF93DF93CDB7DEB765970FB6F894C0
:10096000DEBF0FBECDBF9B8B8A8B7D8B6C8B2C89A2
:100970003D898A899B89A9019E012F5F3F4FB9015B
:100980000E947D0BCE0101960E948A0400006596AC
:100990000FB6F894DEBF0FBECDBFDF91CF910895A3
:1009A0001F920F920FB60F9211240BB60F922F9336
:1009B0008F939F93EF93FF93CF93DF93CDB7DEB7E2
:1009C00090912A0280912B02981799F080912B0226
:1009D0008F5F8F7080932B0280912B02882F90E085
:1009E000845D9D4FFC01208186EC90E0FC0120831A
:1009F00009C081EC90E0FC01208181EC90E02F7D2A
:100A0000FC0120830000DF91CF91FF91EF919F9136
:100A10008F912F910F900BBE0F900FBE0F901F90D4
:100A20001895CF93DF93CDB7DEB790913C028091BC
:100A30003D02981711F480E00EC080913D028F5F57
:100A40008F7180933D0280913D02882F90E0825CFF
:100A50009D4FFC018081DF91CF9108951F920F92ED
:100A60000FB60F9211240BB60F922F938F939F9373
:100A7000EF93FF93CF93DF931F921F92CDB7DEB713
:100A800086EC90E0FC018081898380913C028F5F3D
:100A90008F718A8380913D029A81981759F08A81DB
:100AA00080933C028A81882F90E0825C9D4F29814F
:100AB000FC01208300000F900F90DF91CF91FF91F8
:100AC000EF919F918F912F910F900BBE0F900FBEC2
:100AD0000F901F901895CF93DF931F921F92CDB761
:100AE000DEB780E895E20E94F6038EE192E00E9474
:100AF0008A0489819A816AE070E00E94A904898150
:100B00009A8101969A8389838AE00E945E04F1CFDC
:100B1000CF93DF93CDB7DEB76C970FB6F894DEBFF7
:100B20000FBECDBF0E94F2080E94100780E090E047
:100B3000AAEFB4E489839A83AB83BC8320E030E0DE
:100B40004AE755E469817A818B819C810E94100B70
:100B5000DC01CB018D839E83AF83B88720E030E03A
:100B600040E85FE36D817E818F8198850E94B309A3
:100B700088232CF481E090E09A8789873FC020E0A9
:100B80003FEF4FE757E46D817E818F8198850E940A
:100B90000B0B18164CF520E030E040E251E469817F
:100BA0007A818B819C810E94100BDC01CB01BC01FE
:100BB000CD010E942A0ADC01CB019A8789870FC0E8
:100BC00080E991E09C878B878B859C850197F1F765
:100BD0009C878B8789859A8501979A8789878985DC
:100BE0009A85892B69F714C06D817E818F819885E4
:100BF0000E942A0ADC01CB019A87898789859A8518
:100C00009E878D878D859E850197F1F79E878D87BD
:100C10000E949506019709F077C00E948A090E94F8
:100C2000400880E090E0AAEFB4E48F87988BA98B0E
:100C3000BA8B20E030E04AE755E46F8578898989EE
:100C40009A890E94100BDC01CB018B8B9C8BAD8BA6
:100C5000BE8B20E030E040E85FE36B897C898D89C2
:100C60009E890E94B30988232CF481E090E0988F3C
:100C70008F8B3FC020E03FEF4FE757E46B897C89C3
:100C80008D899E890E940B0B18164CF520E030E0F0
:100C900040E251E46F85788989899A890E94100B16
:100CA000DC01CB01BC01CD010E942A0ADC01CB0191
:100CB000988F8F8B0FC080E991E09A8F898F898DF3
:100CC0009A8D0197F1F79A8F898F8F89988D019767
:100CD000988F8F8B8F89988D892B69F715C06B89B9
:100CE0007C898D899E890E942A0ADC01CB01988F1C
:100CF0008F8B8F89988D9C8F8B8F8B8D9C8D01977F
:100D0000F1F79C8F8B8F00006C960FB6F894DEBFC6
:100D10000FBECDBFDF91CF910895CF93DF93CDB7B5
:100D2000DEB70000DF91CF910895CF93DF93CDB769
:100D3000DEB781E090E0DF91CF910895CF93DF930C
:100D4000CDB7DEB78DE290E0FC0120818DE290E02E
:100D50002063FC01208381E290E0FC01208181E29C
:100D600090E02F6CFC01208381E990E0FC01208160
:100D700081E990E02D60FC01208380E990E0FC0196
:100D8000208180E990E02160FC0120838AE990E0E5
:100D9000FC01118210828CE990E0FC01118210822A
:100DA0000000DF91CF910895CF93DF931F921F92A0
:100DB000CDB7DEB79A8389838AE990E029813A81A9
:100DC000FC013183208380E990E0FC01208180E9EF
:100DD00090E02062FC01208300000F900F90DF91D3
:100DE000CF910895CF93DF931F921F92CDB7DEB7B7
:100DF0009A8389838CE990E029813A81FC013183CF
:100E0000208380E990E0FC01208180E990E0286067
:100E1000FC01208300000F900F90DF91CF91089587
:100E2000CF93DF93CDB7DEB72E970FB6F894DEBF22
:100E30000FBECDBF82E290E0FC01208182E290E013
:100E40002E7FFC01208380E090E0A0EAB0E489835B
:100E50009A83AB83BC8320E030E04AE755E46981A4
:100E60007A818B819C810E94100BDC01CB018D83E8
:100E70009E83AF83B88720E030E040E85FE36D8178
:100E80007E818F8198850E94B30988232CF481E0AC
:100E900090E09A8789873FC020E03FEF4FE757E413
:100EA0006D817E818F8198850E940B0B18164CF501
:100EB00020E030E040E251E469817A818B819C81BD
:100EC0000E94100BDC01CB01BC01CD010E942A0A5B
:100ED000DC01CB019A8789870FC080E991E09C876C
:100EE0008B878B859C850197F1F79C878B878985FC
:100EF0009A8501979A87898789859A85892B69F7C9
:100F000014C06D817E818F8198850E942A0ADC0140
:100F1000CB019A87898789859A859E878D878D855C
:100F20009E850197F1F79E878D8782E290E0FC0114
:100F3000208182E290E02260FC01208300002E9656
:100F40000FB6F894DEBF0FBECDBFDF91CF910895ED
:100F5000CF93DF93CDB7DEB72E970FB6F894DEBFF1
:100F60000FBECDBF82E290E0FC01208182E290E0E2
:100F70002D7FFC01208380E090E0A0EAB0E489832B
:100F80009A83AB83BC8320E030E04AE755E4698173
:100F90007A818B819C810E94100BDC01CB018D83B7
:100FA0009E83AF83B88720E030E040E85FE36D8147
:100FB0007E818F8198850E94B30988232CF481E07B
:100FC00090E09A8789873FC020E03FEF4FE757E4E2
:100FD0006D817E818F8198850E940B0B18164CF5D0
:100FE00020E030E040E251E469817A818B819C818C
:100FF0000E94100BDC01CB01BC01CD010E942A0A2A
:10100000DC01CB019A8789870FC080E991E09C873A
:101010008B878B859C850197F1F79C878B878985CA
:101020009A8501979A87898789859A85892B69F797
:1010300014C06D817E818F8198850E942A0ADC010F
:10104000CB019A87898789859A859E878D878D852B
:101050009E850197F1F79E878D8782E290E0FC01E3
:10106000208182E290E02160FC01208300002E9626
:101070000FB6F894DEBF0FBECDBFDF91CF910895BC
:10108000CF93DF93CDB7DEB782E290E0FC01208101
:1010900082E290E02E7FFC01208382E290E0FC015E
:1010A000208182E290E02E7FFC0120830000DF910E
:1010B000CF910895CF93DF93CDB7DEB72E970FB6BC
:1010C000F894DEBF0FBECDBF82E290E0FC0120812C
:1010D00082E290E02B7FFC01208380E090E0A0EA98
:1010E000B0E489839A83AB83BC8320E030E04AE795
:1010F00055E469817A818B819C810E94100BDC010F
:10110000CB018D839E83AF83B88720E030E040E839
:101110005FE36D817E818F8198850E94B30988236A
:101120002CF481E090E09A8789873FC020E03FEF70
:101130004FE757E46D817E818F8198850E940B0B6C
:1011400018164CF520E030E040E251E469817A81E4
:101150008B819C810E94100BDC01CB01BC01CD0175
:101160000E942A0ADC01CB019A8789870FC080E997
:1011700091E09C878B878B859C850197F1F79C87F5
:101180008B8789859A8501979A87898789859A852A
:10119000892B69F714C06D817E818F8198850E94AB
:1011A0002A0ADC01CB019A87898789859A859E87DF
:1011B0008D878D859E850197F1F79E878D8782E2C9
:1011C00090E0FC01208182E290E02860FC01208315
:1011D00000002E960FB6F894DEBF0FBECDBFDF9194
:1011E000CF910895CF93DF93CDB7DEB72E970FB68B
:1011F000F894DEBF0FBECDBF82E290E0FC012081FB
:1012000082E290E0277FFC01208380E090E0A0EA6A
:10121000B0E489839A83AB83BC8320E030E04AE763
:1012200055E469817A818B819C810E94100BDC01DD
:10123000CB018D839E83AF83B88720E030E040E808
:101240005FE36D817E818F8198850E94B309882339
:101250002CF481E090E09A8789873FC020E03FEF3F
:101260004FE757E46D817E818F8198850E940B0B3B
:1012700018164CF520E030E040E251E469817A81B3
:101280008B819C810E94100BDC01CB01BC01CD0144
:101290000E942A0ADC01CB019A8789870FC080E966
:1012A00091E09C878B878B859C850197F1F79C87C4
:1012B0008B8789859A8501979A87898789859A85F9
:1012C000892B69F714C06D817E818F8198850E947A
:1012D0002A0ADC01CB019A87898789859A859E87AE
:1012E0008D878D859E850197F1F79E878D8782E298
:1012F00090E0FC01208182E290E02460FC012083E8
:1013000000002E960FB6F894DEBF0FBECDBFDF9162
:10131000CF910895CF93DF93CDB7DEB782E290E00F
:10132000FC01208182E290E02B7FFC01208382E29D
:1013300090E0FC01208182E290E0277FFC01208385
:101340000000DF91CF910895A29FB001B39FC0012B
:10135000A39F700D811D1124911DB29F700D811DE1
:101360001124911D08950E94960A08F481E00895C1
:101370000E94CC090C94D10A0E94CA0A58F00E941B
:10138000C30A40F029F45F3F29F00C94BA0A5111C6
:101390000C94050B0C94C00A0E94E20A68F399238E
:1013A000B1F3552391F3951B550BBB27AA27621761
:1013B0007307840738F09F5F5F4F220F331F441F6E
:1013C000AA1FA9F335D00E2E3AF0E0E832D09150A2
:1013D0005040E695001CCAF72BD0FE2F29D0660F8F
:1013E000771F881FBB1F261737074807AB07B0E8D2
:1013F00009F0BB0B802DBF01FF2793585F4F3AF0D8
:101400009E3F510578F00C94BA0A0C94050B5F3F8F
:10141000E4F3983ED4F3869577956795B795F7955D
:101420009F5FC9F7880F911D9695879597F9089545
:10143000E1E0660F771F881FBB1F621773078407E1
:10144000BA0720F0621B730B840BBA0BEE1F88F7F0
:10145000E09508950E94EA0A88F09F5798F0B92F06
:101460009927B751B0F0E1F0660F771F881F991FD9
:101470001AF0BA95C9F714C0B13091F00E94040B6C
:10148000B1E008950C94040B672F782F8827B85F7C
:1014900039F0B93FCCF3869577956795B395D9F731
:1014A0003EF490958095709561957F4F8F4F9F4F3B
:1014B0000895E89409C097FB3EF490958095709547
:1014C00061957F4F8F4F9F4F9923A9F0F92F96E990
:1014D000BB279395F695879577956795B795F11105
:1014E000F8CFFAF4BB0F11F460FF1BC06F5F7F4FA2
:1014F0008F4F9F4F16C0882311F096E911C07723B4
:1015000021F09EE8872F762F05C0662371F096E8BC
:10151000862F70E060E02AF09A95660F771F881F8B
:10152000DAF7880F9695879597F90895990F00082F
:10153000550FAA0BE0E8FEEF16161706E807F907A5
:10154000C0F012161306E407F50798F0621B730B40
:10155000840B950B39F40A2661F0232B242B252BC1
:1015600021F408950A2609F4A140A6958FEF811D64
:10157000811D089597F99F6780E870E060E0089505
:101580009FEF80EC089500240A941616170618069B
:101590000906089500240A94121613061406050677
:1015A0000895092E0394000C11F4882352F0BB0F08
:1015B00040F4BF2B11F460FF04C06F5F7F4F8F4F6B
:1015C0009F4F089557FD9058440F551F59F05F3FA6
:1015D00071F04795880F97FB991F61F09F3F79F055
:1015E00087950895121613061406551FF2CF4695D7
:1015F000F1DF08C0161617061806991FF1CF869559
:101600007105610508940895E894BB27662777273C
:10161000CB0197F908950E94960A08F48FEF089578
:101620000E94230B0C94D10A0E94C30A38F00E9436
:10163000CA0A20F0952311F00C94BA0A0C94C00A3F
:1016400011240C94050B0E94E20A70F3959FC1F3DC
:10165000950F50E0551F629FF001729FBB27F00D60
:10166000B11D639FAA27F00DB11DAA1F649F6627B5
:10167000B00DA11D661F829F2227B00DA11D621F04
:10168000739FB00DA11D621F839FA00D611D221FBE
:10169000749F3327A00D611D231F849F600D211DA2
:1016A000822F762F6A2F11249F5750409AF0F1F025
:1016B00088234AF0EE0FFF1FBB1F661F771F881F8E
:1016C00091505040A9F79E3F510580F00C94BA0A02
:1016D0000C94050B5F3FE4F3983ED4F38695779521
:1016E0006795B795F795E7959F5FC1F7FE2B880F34
:1016F000911D9695879597F908954532510520F4E7
:10170000423010F00C94880BFB011082CB0108953D
:10171000BB274A3031F4992322F4BDE2909581959C
:101720009F4F0C94940BBB27FB015527AA27880FCA
:10173000991FAA1FA41710F0A41B83955051B9F745
:10174000A05DAA3308F0A95DA193009779F7B111C4
:10175000B1931192CB010C94AD0BDC01FC01672F0E
:1017600071917723E1F7329704C07C916D93708378
:0E1770006291AE17BF07C8F30895F894FFCF3B
:10177E00014F7574206F662072616E67652100449B
:10178E00697374616E6365203D2000636D00696E40
:04179E00697400006A
:00000001FF
