:100000000C9411010C9432010C9432010C943201C5
:100010000C9432010C9432010C9432010C94320194
:100020000C9432010C9432010C9432010C94320184
:100030000C9432010C9432010C9432010C94320174
:100040000C9432010C9432010C9432010C94320164
:100050000C9432010C9432010C9432010C94320154
:100060000C9432010C94B2110C9493110C94320143
:100070000C9432010C9432010C9432010C94320134
:100080000C9432010C9432010C9432010C94320124
:100090000C94ED110C94CE110C9432010C9432019D
:1000A0000C9432010C9432010C9432010C94320104
:1000B0000C9432010C9432010C9432010C943201F4
:1000C0000C9432010C9432010C9432010C942812DD
:1000D0000C9409120C9432010C9463120C94441287
:1000E0000C9432010C94EB100C9430114E414E499B
:1000F0004E495459494E46CDCCCC3D0AD7233C17E6
:10010000B7D13877CC2B329595E6241FB14F0A0032
:100110000020410000C84200401C4620BCBE4CCA22
:100120001B0E5AAEC59D7400407A10F35A00A0729F
:100130004E18090010A5D4E80000E8764817000022
:10014000E40B54020000CA9A3B000000E1F50500F0
:100150000080969800000040420F000000A0860139
:10016000000000102700000000E803000000006409
:1001700000000000000A0000000000010000000074
:10018000002C76D888DC674F0823DFC1DFAE59E149
:10019000B1B796E5E3E453C63AE651997696E8E6B8
:1001A000C28426EB898C9B62ED407C6FFCEFBC9C8B
:1001B0009F40F2BAA56FA5F490055A2AF75C936B9D
:1001C0006CF9676DC11BFCE0E40D47FEF520E6B558
:1001D00000D0ED902E0300943577050080841E0832
:1001E0000000204E0A000000C80C333333330F9850
:1001F0006E12831141EF8D2114893BE65516CFFE17
:10020000E6DB18D1844B381BF77C1D901DA4BBE4A2
:1002100024203284725E228100C9F124ECA1E53DE4
:10022000270011241FBECFEFD1E2DEBFCDBF00E01B
:100230000CBF12E0A0E0B2E0E0E7F2E300E00BBFA9
:1002400002C007900D92AE3EB107D9F724E0AEEEA2
:10025000B2E001C01D92A630B207E1F70E948712FA
:100260000C9436190C940000CF93DF93CDB7DEB712
:10027000F89481E0DF91CF910895CF93DF931F929F
:100280001F92CDB7DEB79A8389838FE590E02981ED
:100290003A81F9012081FC01208300000F900F902A
:1002A000DF91CF910895CF93DF931F921F92CDB727
:1002B000DEB79A83898381EC90E0FC01108284ECA4
:1002C00090E02981FC01208389819A81292F33279D
:1002D00085EC90E0FC01208381EC90E028E9FC01B2
:1002E000208300000F900F90DF91CF910895CF935E
:1002F000DF931F921F92CDB7DEB79A83898389EC73
:1003000090E0FC0110828CEC90E02981FC012083BC
:1003100089819A81292F33278DEC90E0FC0120837D
:1003200089EC90E028E9FC01208300000F900F90F9
:10033000DF91CF910895CF93DF931F921F92CDB796
:10034000DEB79A83898381ED90E0FC01108284ED11
:1003500090E02981FC01208389819A81292F33270C
:1003600085ED90E0FC01208381ED90E028E9FC011F
:10037000208300000F900F90DF91CF910895CF93CD
:10038000DF931F921F92CDB7DEB79A83898381E3F3
:1003900091E0FC01108284E391E02981FC0120833B
:1003A00089819A81292F332785E391E0FC012083FD
:1003B00081E391E028E9FC01208300000F900F9079
:1003C000DF91CF9108959091570393959F71B091CC
:1003D0003203B917E1F3A92FB0E0A352BC4F8C93BD
:1003E000F894909357039091C10090629093C1004C
:1003F000189500001F93CF93DF9300D0CDB7DEB7E1
:100400008B83809157038F5F182F1F718091320368
:10041000181711F480E026C08B81912FA92FB0E02E
:10042000A352BC4F8C93192F8B838FE590E0FC0176
:1004300080818A830E94340189830CC01093570302
:1004400081EC90E0FC01208181EC90E02062FC01D5
:10045000208319828981882389F7CE0102960E9420
:100460003D0181E00F900F900F90DF91CF911F9190
:100470000895CF93DF931F921F92CDB7DEB79A8373
:10048000898329813A81F9018191882311F09BDFC9
:10049000FBCF00000F900F90DF91CF910895CF9385
:1004A000DF9300D0CDB7DEB79A8389836B834B810E
:1004B00029813A81F9014E0F4E1719F0819183DF9E
:1004C000FBCF00000F900F900F90DF91CF91089518
:1004D000CF93DF931F921F92CDB7DEB79A838983A4
:1004E00029813A81F9018591882311F06CDFFBCFD6
:1004F00000000F900F90DF91CF910895CF93DF937D
:1005000000D000D000D0CDB7DEB799878887888526
:1005100099854AE050E09E012F5F3F4FB9010E944C
:100520004B13CE0101960E943902000029960FB6A6
:10053000F894DEBF0FBECDBFDF91CF910895CF936A
:10054000DF93CDB7DEB764970FB6F894DEBF0FBE6A
:10055000CDBF9B8B8A8B6C8B8C89282F30E08A894E
:100560009B89A9019E012F5F3F4FB9010E944B1348
:10057000CE0101960E943902000064960FB6F894ED
:10058000DEBF0FBECDBFDF91CF910895CF93DF9334
:1005900000D000D000D0CDB7DEB799878887888596
:1005A00099854AE050E09E012F5F3F4FB9010E94BC
:1005B000C513CE0101960E943902000029960FB69C
:1005C000F894DEBF0FBECDBFDF91CF910895CF93DA
:1005D000DF93CDB7DEB764970FB6F894DEBF0FBEDA
:1005E000CDBF9B8B8A8B6C8B8C89282F30E08A89BE
:1005F0009B89A9019E012F5F3F4FB9010E94C5133E
:10060000CE0101960E943902000064960FB6F8945C
:10061000DEBF0FBECDBFDF91CF910895CF93DF93A3
:100620001F921F92CDB7DEB78A838A8182958F7021
:10063000898389818A3018F48981805D02C089812B
:10064000895A0E94E3018A818F70898389818A3067
:1006500018F48981805D02C08981895A0E94E30172
:1006600000000F900F90DF91CF910895CF93DF930B
:10067000CDB7DEB760970FB6F894DEBF0FBECDBF23
:100680006D877E878F87988B8D859E85AF85B8898E
:100690002AE030E0AE014F5F5F4FBC01CD010E9408
:1006A0006113CE0101960E943902000060960FB6D8
:1006B000F894DEBF0FBECDBFDF91CF910895CF93E9
:1006C000DF93CDB7DEB766970FB6F894DEBF0FBEE7
:1006D000CDBF6A8B7B8B8C8B9D8B4E8B8E89282F0D
:1006E00030E08A899B89AC89BD89AE014F5F5F4F3D
:1006F000BC01CD010E946113CE0101960E94390216
:10070000000066960FB6F894DEBF0FBECDBFDF9136
:10071000CF910895CF93DF93CDB7DEB760970FB633
:10072000F894DEBF0FBECDBF6D877E878F87988B15
:100730008D859E85AF85B8892AE030E0AE014F5F98
:100740005F4FBC01CD010E949813CE0101960E941B
:100750003902000060960FB6F894DEBF0FBECDBF21
:10076000DF91CF910895CF93DF93CDB7DEB7669732
:100770000FB6F894DEBF0FBECDBF6A8B7B8B8C8B20
:100780009D8B4E8B8E89282F30E08A899B89AC897E
:10079000BD89AE014F5F5F4FBC01CD010E94981330
:1007A000CE0101960E943902000066960FB6F894B9
:1007B000DEBF0FBECDBFDF91CF9108950F931F9382
:1007C000CF93DF93CDB7DEB766970FB6F894DEBF51
:1007D0000FBECDBF6B8B7C8B8D8B9E8B9E012D5F57
:1007E0003F4F8B899C89AD89BE89890126E04FE006
:1007F000BC01CD010E94E412CE0103969A83898345
:1008000005C089819A8101969A83898389819A8119
:10081000FC0180818032A9F389819A810E9439028A
:10082000000066960FB6F894DEBF0FBECDBFDF9115
:10083000CF911F910F9108950F931F93CF93DF9343
:10084000CDB7DEB767970FB6F894DEBF0FBECDBF4A
:100850006B8B7C8B8D8B9E8B4F8B9E012D5F3F4FC7
:100860008B899C89AD89BE8989012F894FE0BC01A4
:10087000CD010E94E412CE0103969A83898305C0BC
:1008800089819A8101969A83898389819A81FC0161
:1008900080818032A9F389819A810E943902000007
:1008A00067960FB6F894DEBF0FBECDBFDF91CF9134
:1008B0001F910F910895CF93DF93CDB7DEB700005E
:1008C00090913203809157039817D1F70000DF9180
:1008D000CF9108959091BC0393959F71B091790346
:1008E000B917E1F3A92FB0E0AB5CBC4F8C93F8943F
:1008F0009093BC039091C90090629093C9001895A1
:1009000000001F93CF93DF9300D0CDB7DEB78B836A
:100910008091BC038F5F182F1F7180917903181786
:1009200011F480E026C08B81912FA92FB0E0AB5C41
:10093000BC4F8C93192F8B838FE590E0FC01808155
:100940008A830E94340189830CC01093BC0389EC14
:1009500090E0FC01208189EC90E02062FC01208382
:1009600019828981882389F7CE0102960E943D0170
:1009700081E00F900F900F90DF91CF911F9108951C
:10098000CF93DF931F921F92CDB7DEB79A838983EF
:1009900029813A81F9018191882311F09BDFFBCFF6
:1009A00000000F900F90DF91CF910895CF93DF93C8
:1009B00000D0CDB7DEB79A8389836B834B812981C1
:1009C0003A81F9014E0F4E1719F0819183DFFBCF69
:1009D00000000F900F900F90DF91CF910895CF936B
:1009E000DF931F921F92CDB7DEB79A838983298147
:1009F0003A81F9018591882311F06CDFFBCF00006B
:100A00000F900F90DF91CF910895CF93DF9300D097
:100A100000D000D0CDB7DEB79987888788859985C3
:100A20004AE050E09E012F5F3F4FB9010E944B13F7
:100A3000CE0101960E94C004000029960FB6F894DA
:100A4000DEBF0FBECDBFDF91CF910895CF93DF936F
:100A5000CDB7DEB764970FB6F894DEBF0FBECDBF3B
:100A60009B8B8A8B6C8B8C89282F30E08A899B89A1
:100A7000A9019E012F5F3F4FB9010E944B13CE0188
:100A800001960E94C004000064960FB6F894DEBF81
:100A90000FBECDBFDF91CF910895CF93DF9300D0EC
:100AA00000D000D0CDB7DEB7998788878885998533
:100AB0004AE050E09E012F5F3F4FB9010E94C513ED
:100AC000CE0101960E94C004000029960FB6F8944A
:100AD000DEBF0FBECDBFDF91CF910895CF93DF93DF
:100AE000CDB7DEB764970FB6F894DEBF0FBECDBFAB
:100AF0009B8B8A8B6C8B8C89282F30E08A899B8911
:100B0000A9019E012F5F3F4FB9010E94C513CE017D
:100B100001960E94C004000064960FB6F894DEBFF0
:100B20000FBECDBFDF91CF910895CF93DF931F927A
:100B30001F92CDB7DEB78A838A8182958F708983B1
:100B400089818A3018F48981805D02C08981895A3F
:100B50000E946A048A818F70898389818A3018F49F
:100B60008981805D02C08981895A0E946A040000DF
:100B70000F900F90DF91CF910895CF93DF93CDB772
:100B8000DEB760970FB6F894DEBF0FBECDBF6D879E
:100B90007E878F87988B8D859E85AF85B8892AE063
:100BA00030E0AE014F5F5F4FBC01CD010E94611389
:100BB000CE0101960E94C004000060960FB6F89422
:100BC000DEBF0FBECDBFDF91CF910895CF93DF93EE
:100BD000CDB7DEB766970FB6F894DEBF0FBECDBFB8
:100BE0006A8B7B8B8C8B9D8B4E8B8E89282F30E074
:100BF0008A899B89AC89BD89AE014F5F5F4FBC017B
:100C0000CD010E946113CE0101960E94C004000034
:100C100066960FB6F894DEBF0FBECDBFDF91CF91C1
:100C20000895CF93DF93CDB7DEB760970FB6F894F2
:100C3000DEBF0FBECDBF6D877E878F87988B8D857A
:100C40009E85AF85B8892AE030E0AE014F5F5F4FE7
:100C5000BC01CD010E949813CE0101960E94C004F0
:100C6000000060960FB6F894DEBF0FBECDBFDF91D7
:100C7000CF910895CF93DF93CDB7DEB766970FB6C8
:100C8000F894DEBF0FBECDBF6A8B7B8B8C8B9D8BA8
:100C90004E8B8E89282F30E08A899B89AC89BD894B
:100CA000AE014F5F5F4FBC01CD010E949813CE0192
:100CB00001960E94C004000066960FB6F894DEBF4D
:100CC0000FBECDBFDF91CF9108950F931F93CF93A8
:100CD000DF93CDB7DEB766970FB6F894DEBF0FBED1
:100CE000CDBF6B8B7C8B8D8B9E8B9E012D5F3F4F81
:100CF0008B899C89AD89BE89890126E04FE0BC01C2
:100D0000CD010E94E412CE0103969A83898305C027
:100D100089819A8101969A83898389819A81FC01CC
:100D200080818032A9F389819A810E94C0040000E9
:100D300066960FB6F894DEBF0FBECDBFDF91CF91A0
:100D40001F910F9108950F931F93CF93DF93CDB70A
:100D5000DEB767970FB6F894DEBF0FBECDBF6B8BC3
:100D60007C8B8D8B9E8B4F8B9E012D5F3F4F8B8994
:100D70009C89AD89BE8989012F894FE0BC01CD01D5
:100D80000E94E412CE0103969A83898305C089816B
:100D90009A8101969A83898389819A81FC01808155
:100DA0008032A9F389819A810E94C004000067966D
:100DB0000FB6F894DEBF0FBECDBFDF91CF911F916C
:100DC0000F910895CF93DF93CDB7DEB700009091D8
:100DD00079038091BC039817D1F70000DF91CF9180
:100DE00008959091FD0393959F71B091EE02B9170C
:100DF000E1F3A92FB0E0A658BC4F8C93F8949093E0
:100E0000FD039091D10090629093D100189500005D
:100E10001F93CF93DF9300D0CDB7DEB78B83809144
:100E2000FD038F5F182F1F718091EE02181711F4C8
:100E300080E026C08B81912FA92FB0E0A658BC4F2F
:100E40008C93192F8B838FE590E0FC0180818A833E
:100E50000E94340189830CC01093FD0381ED90E062
:100E6000FC01208181ED90E02062FC012083198249
:100E70008981882389F7CE0102960E943D0181E095
:100E80000F900F900F90DF91CF911F910895CF9306
:100E9000DF931F921F92CDB7DEB79A838983298192
:100EA0003A81F9018191882311F09BDFFBCF00008B
:100EB0000F900F90DF91CF910895CF93DF9300D0E3
:100EC000CDB7DEB79A8389836B834B8129813A81C1
:100ED000F9014E0F4E1719F0819183DFFBCF00000F
:100EE0000F900F900F90DF91CF910895CF93DF93E4
:100EF0001F921F92CDB7DEB79A83898329813A81E9
:100F0000F9018591882311F06CDFFBCF00000F9071
:100F10000F90DF91CF910895CF93DF9300D000D051
:100F200000D0CDB7DEB799878887888599854AE054
:100F300050E09E012F5F3F4FB9010E944B13CE013D
:100F400001960E944707000029960FB6F894DEBF6D
:100F50000FBECDBFDF91CF910895CF93DF93CDB773
:100F6000DEB764970FB6F894DEBF0FBECDBF9B8B84
:100F70008A8B6C8B8C89282F30E08A899B89A90108
:100F80009E012F5F3F4FB9010E944B13CE01019686
:100F90000E944707000064960FB6F894DEBF0FBEAC
:100FA000CDBFDF91CF910895CF93DF9300D000D0D4
:100FB00000D0CDB7DEB799878887888599854AE0C4
:100FC00050E09E012F5F3F4FB9010E94C513CE0133
:100FD00001960E944707000029960FB6F894DEBFDD
:100FE0000FBECDBFDF91CF910895CF93DF93CDB7E3
:100FF000DEB764970FB6F894DEBF0FBECDBF9B8BF4
:101000008A8B6C8B8C89282F30E08A899B89A90177
:101010009E012F5F3F4FB9010E94C513CE0101967B
:101020000E944707000064960FB6F894DEBF0FBE1B
:10103000CDBFDF91CF910895CF93DF931F921F9281
:10104000CDB7DEB78A838A8182958F708983898143
:101050008A3018F48981805D02C08981895A0E9492
:10106000F1068A818F70898389818A3018F4898199
:10107000805D02C08981895A0E94F10600000F90AC
:101080000F90DF91CF910895CF93DF93CDB7DEB767
:1010900060970FB6F894DEBF0FBECDBF6D877E8719
:1010A0008F87988B8D859E85AF85B8892AE030E043
:1010B000AE014F5F5F4FBC01CD010E946113CE01B5
:1010C00001960E944707000060960FB6F894DEBFB5
:1010D0000FBECDBFDF91CF910895CF93DF93CDB7F2
:1010E000DEB766970FB6F894DEBF0FBECDBF6A8B32
:1010F0007B8B8C8B9D8B4E8B8E89282F30E08A8941
:101100009B89AC89BD89AE014F5F5F4FBC01CD01AA
:101110000E946113CE0101960E9447070000669667
:101120000FB6F894DEBF0FBECDBFDF91CF9108950B
:10113000CF93DF93CDB7DEB760970FB6F894DEBFDD
:101140000FBECDBF6D877E878F87988B8D859E85DF
:10115000AF85B8892AE030E0AE014F5F5F4FBC0138
:10116000CD010E949813CE0101960E94470700000E
:1011700060960FB6F894DEBF0FBECDBFDF91CF9162
:101180000895CF93DF93CDB7DEB766970FB6F89487
:10119000DEBF0FBECDBF6A8B7B8B8C8B9D8B4E8B46
:1011A0008E89282F30E08A899B89AC89BD89AE0160
:1011B0004F5F5F4FBC01CD010E949813CE01019695
:1011C0000E944707000066960FB6F894DEBF0FBE78
:1011D000CDBFDF91CF9108950F931F93CF93DF93EE
:1011E000CDB7DEB766970FB6F894DEBF0FBECDBFA2
:1011F0006B8B7C8B8D8B9E8B9E012D5F3F4F8B89E4
:101200009C89AD89BE89890126E04FE0BC01CD01F2
:101210000E94E412CE0103969A83898305C08981D6
:101220009A8101969A83898389819A81FC018081C0
:101230008032A9F389819A810E944707000066964F
:101240000FB6F894DEBF0FBECDBFDF91CF911F91D7
:101250000F9108950F931F93CF93DF93CDB7DEB710
:1012600067970FB6F894DEBF0FBECDBF6B8B7C8B3C
:101270008D8B9E8B4F8B9E012D5F3F4F8B899C8961
:10128000AD89BE8989012F894FE0BC01CD010E9443
:10129000E412CE0103969A83898305C089819A81DD
:1012A00001969A83898389819A81FC0180818032A9
:1012B000A9F389819A810E944707000067960FB6BB
:1012C000F894DEBF0FBECDBFDF91CF911F910F917C
:1012D0000895CF93DF93CDB7DEB700009091EE0273
:1012E0008091FD039817D1F70000DF91CF91089509
:1012F0009091340393959F71B0915603B917E1F320
:10130000A92FB0E0A051BD4F8C93F8949093340373
:1013100090913101906290933101189500001F93D4
:10132000CF93DF9300D0CDB7DEB78B8380913403AA
:101330008F5F182F1F7180915603181711F480E0EA
:1013400026C08B81912FA92FB0E0A051BD4F8C9367
:10135000192F8B838FE590E0FC0180818A830E94A6
:10136000340189830CC01093340381E391E0FC01C4
:10137000208181E391E02062FC0120831982898130
:10138000882389F7CE0102960E943D0181E00F90EB
:101390000F900F90DF91CF911F910895CF93DF931E
:1013A0001F921F92CDB7DEB79A83898329813A8134
:1013B000F9018191882311F09BDFFBCF00000F9092
:1013C0000F90DF91CF910895CF93DF9300D0CDB7E9
:1013D000DEB79A8389836B834B8129813A81F90136
:1013E0004E0F4E1719F0819183DFFBCF00000F9055
:1013F0000F900F90DF91CF910895CF93DF931F92BD
:101400001F92CDB7DEB79A83898329813A81F9018A
:101410008591882311F06CDFFBCF00000F900F90B7
:10142000DF91CF910895CF93DF9300D000D000D00B
:10143000CDB7DEB799878887888599854AE050E0DF
:101440009E012F5F3F4FB9010E944B13CE010196C1
:101450000E94CE09000029960FB6F894DEBF0FBE99
:10146000CDBFDF91CF910895CF93DF93CDB7DEB796
:1014700064970FB6F894DEBF0FBECDBF9B8B8A8BEF
:101480006C8B8C89282F30E08A899B89A9019E0169
:101490002F5F3F4FB9010E944B13CE0101960E946E
:1014A000CE09000064960FB6F894DEBF0FBECDBF24
:1014B000DF91CF910895CF93DF9300D000D000D07B
:1014C000CDB7DEB799878887888599854AE050E04F
:1014D0009E012F5F3F4FB9010E94C513CE010196B7
:1014E0000E94CE09000029960FB6F894DEBF0FBE09
:1014F000CDBFDF91CF910895CF93DF93CDB7DEB706
:1015000064970FB6F894DEBF0FBECDBF9B8B8A8B5E
:101510006C8B8C89282F30E08A899B89A9019E01D8
:101520002F5F3F4FB9010E94C513CE0101960E9463
:10153000CE09000064960FB6F894DEBF0FBECDBF93
:10154000DF91CF910895CF93DF931F921F92CDB774
:10155000DEB78A838A8182958F70898389818A30F8
:1015600018F48981805D02C08981895A0E947809B6
:101570008A818F70898389818A3018F48981805D9E
:1015800002C08981895A0E94780900000F900F904B
:10159000DF91CF910895CF93DF93CDB7DEB76097FA
:1015A0000FB6F894DEBF0FBECDBF6D877E878F87E5
:1015B000988B8D859E85AF85B8892AE030E0AE0195
:1015C0004F5F5F4FBC01CD010E946113CE010196B8
:1015D0000E94CE09000060960FB6F894DEBF0FBEE1
:1015E000CDBFDF91CF910895CF93DF93CDB7DEB715
:1015F00066970FB6F894DEBF0FBECDBF6A8B7B8BAC
:101600008C8B9D8B4E8B8E89282F30E08A899B890D
:10161000AC89BD89AE014F5F5F4FBC01CD010E9417
:101620006113CE0101960E94CE09000066960FB6A6
:10163000F894DEBF0FBECDBFDF91CF910895CF9359
:10164000DF93CDB7DEB760970FB6F894DEBF0FBE5D
:10165000CDBF6D877E878F87988B8D859E85AF8563
:10166000B8892AE030E0AE014F5F5F4FBC01CD0189
:101670000E949813CE0101960E94CE090000609648
:101680000FB6F894DEBF0FBECDBFDF91CF910895A6
:10169000CF93DF93CDB7DEB766970FB6F894DEBF72
:1016A0000FBECDBF6A8B7B8B8C8B9D8B4E8B8E89B7
:1016B000282F30E08A899B89AC89BD89AE014F5FB4
:1016C0005F4FBC01CD010E949813CE0101960E948C
:1016D000CE09000066960FB6F894DEBF0FBECDBFF0
:1016E000DF91CF9108950F931F93CF93DF93CDB7E1
:1016F000DEB766970FB6F894DEBF0FBECDBF6B8B1B
:101700007C8B8D8B9E8B9E012D5F3F4F8B899C899F
:10171000AD89BE89890126E04FE0BC01CD010E9460
:10172000E412CE0103969A83898305C089819A8148
:1017300001969A83898389819A81FC018081803214
:10174000A9F389819A810E94CE09000066960FB69E
:10175000F894DEBF0FBECDBFDF91CF911F910F91E7
:1017600008950F931F93CF93DF93CDB7DEB767979D
:101770000FB6F894DEBF0FBECDBF6B8B7C8B8D8B0D
:101780009E8B4F8B9E012D5F3F4F8B899C89AD892E
:10179000BE8989012F894FE0BC01CD010E94E4126E
:1017A000CE0103969A83898305C089819A81019627
:1017B0009A83898389819A81FC0180818032A9F38F
:1017C00089819A810E94CE09000067960FB6F8942D
:1017D000DEBF0FBECDBFDF91CF911F910F91089556
:1017E000CF93DF93CDB7DEB7000090915603809181
:1017F00034039817D1F70000DF91CF910895CF936C
:10180000DF931F92CDB7DEB780913303982F292F36
:1018100080917803281711F480E00EC0892F8F5F24
:101820008F71982FA92FB0E0AF5EBC4F8C91898348
:10183000892F8093330389810F90DF91CF91089591
:10184000CF93DF9300D0CDB7DEB79A8389836B83C4
:1018500029813A814B81F9014A9521F0D0DF8193AA
:101860008111FACF108200000F900F900F90DF913E
:10187000CF910895CF93DF9300D0CDB7DEB79A8391
:1018800089836B8329813A819B81F9019A9551F073
:10189000B6DF8823E9F38D3011F08193F7CFAFDF06
:1018A0008823E9F3108200000F900F900F90DF91D2
:1018B000CF910895CF93DF9300D0CDB7DEB79A8351
:1018C00089836B8329813A814B81F90198DF8132C9
:1018D000E8F381934A954A9561F091DF8823E9F313
:1018E0008D3021F0813228F08193F5CF88DF882375
:1018F000E9F3108200000F900F900F90DF91CF91CD
:101900000895CF93DF9300D000D01F92CDB7DEB7FC
:1019100067E0CE0101960E945A0CCE0101960E940A
:10192000061327960FB6F894DEBF0FBECDBFDF912A
:10193000CF910895CF93DF93CDB7DEB72C970FB635
:10194000F894DEBF0FBECDBF6CE0CE0101960E94C1
:101950005A0CCE0101960E942413DC01CB01BC017C
:10196000CD012C960FB6F894DEBF0FBECDBFDF9130
:10197000CF910895CF93DF93CDB7DEB7A0970FB681
:10198000F894DEBF0FBECDBF60E2CE0101960E948B
:101990005A0CCE0101960E940213DC01CB01BC015E
:1019A000CD01A0960FB6F894DEBF0FBECDBFDF917C
:1019B000CF9108951F93CF93DF931F92CDB7DEB7DA
:1019C0001091330380917803181719F48FEF9FEF6C
:1019D00011C081E0810F182F1F71812FA82FB0E057
:1019E000AF5EBC4F9C91182F99831093330389816C
:1019F000882F90E00F90DF91CF911F9108951F9352
:101A0000CF93DF931F921F92CDB7DEB79A8389835E
:101A10001091330380917803181711F480E012C0FD
:101A200081E0810F182F1F71812F90E08F5E9C4FF6
:101A3000FC018081282F89819A81FC0120831093E9
:101A4000330381E00F900F90DF91CF911F910895A4
:101A5000CF93DF93CDB7DEB780913303882F90E02B
:101A600001968F7199278F5E9C4FFC018081DF91D9
:101A7000CF910895CF93DF931F92CDB7DEB78091BA
:101A80003103982F292F80919A03281711F480E0B1
:101A90000EC0892F8F5F8F71982FA92FB0E0A85AA1
:101AA000BC4F8C918983892F8093310389810F905A
:101AB000DF91CF910895CF93DF9300D0CDB7DEB7FC
:101AC0009A8389836B8329813A814B81F9014A95F5
:101AD00021F0D0DF81938111FACF108200000F90A6
:101AE0000F900F90DF91CF910895CF93DF9300D0A7
:101AF000CDB7DEB79A8389836B8329813A814B8185
:101B0000F9014A9551F0B6DF8823E9F38D3011F0E1
:101B10008193F7CFAFDF8823E9F3108200000F90A5
:101B20000F900F90DF91CF910895CF93DF9300D066
:101B3000CDB7DEB79A8389836B8329813A814B8144
:101B4000F90198DF8132E8F381934A954A9561F073
:101B500091DF8823E9F38D3021F0813228F08193E1
:101B6000F5CF88DF8823E9F3108200000F900F90F3
:101B70000F90DF91CF910895CF93DF9300D000D0E5
:101B80001F92CDB7DEB767E0CE0101960E94950D9A
:101B9000CE0101960E94061327960FB6F894DEBF79
:101BA0000FBECDBFDF91CF910895CF93DF93CDB717
:101BB000DEB72C970FB6F894DEBF0FBECDBF6CE03A
:101BC000CE0101960E94950DCE0101960E9424132C
:101BD000DC01CB01BC01CD012C960FB6F894DEBF21
:101BE0000FBECDBFDF91CF910895CF93DF93CDB7D7
:101BF000DEB7A0970FB6F894DEBF0FBECDBF60E290
:101C0000CE0101960E94950DCE0101960E9402130D
:101C1000DC01CB01BC01CD01A0960FB6F894DEBF6C
:101C20000FBECDBFDF91CF9108951F93CF93DF9368
:101C30001F92CDB7DEB71091310380919A03181728
:101C400019F48FEF9FEF11C081E0810F182F1F71E2
:101C5000812FA82FB0E0A85ABC4F9C91182F9983D0
:101C6000109331038981882F90E00F90DF91CF91FD
:101C70001F9108951F93CF93DF931F921F92CDB7AB
:101C8000DEB79A8389831091310380919A031817E4
:101C900011F480E012C081E0810F182F1F71812F95
:101CA00090E0885A9C4FFC018081282F89819A817D
:101CB000FC0120831093310381E00F900F90DF919E
:101CC000CF911F910895CF93DF93CDB7DEB7809169
:101CD0003103882F90E001968F719927885A9C4F85
:101CE000FC018081DF91CF910895CF93DF931F9204
:101CF000CDB7DEB780919B03982F292F8091EF02FB
:101D0000281711F480E00EC0892F8F5F8F71982FF4
:101D1000A92FB0E0A354BC4F8C918983892F809365
:101D20009B0389810F90DF91CF910895CF93DF932B
:101D300000D0CDB7DEB79A8389836B8329813A813E
:101D40004B81F9014A9521F0D0DF81938111FACFBF
:101D5000108200000F900F900F90DF91CF910895A7
:101D6000CF93DF9300D0CDB7DEB79A8389836B839F
:101D700029813A814B81F9014A9551F0B6DF8823D8
:101D8000E9F38D3011F08193F7CFAFDF8823E9F3CA
:101D9000108200000F900F900F90DF91CF91089567
:101DA000CF93DF9300D0CDB7DEB79A8389836B835F
:101DB00029813A814B81F90198DF8132E8F38193DF
:101DC0004A954A9561F091DF8823E9F38D3021F03F
:101DD000813228F08193F5CF88DF8823E9F31082E0
:101DE00000000F900F900F90DF91CF910895CF9347
:101DF000DF9300D000D01F92CDB7DEB767E0CE01F1
:101E000001960E94D00ECE0101960E9406132796DD
:101E10000FB6F894DEBF0FBECDBFDF91CF9108950E
:101E2000CF93DF93CDB7DEB72C970FB6F894DEBF14
:101E30000FBECDBF6CE0CE0101960E94D00ECE0148
:101E400001960E942413DC01CB01BC01CD012C962C
:101E50000FB6F894DEBF0FBECDBFDF91CF910895CE
:101E6000CF93DF93CDB7DEB7A0970FB6F894DEBF60
:101E70000FBECDBF60E2CE0101960E94D00ECE0112
:101E800001960E940213DC01CB01BC01CD01A0969A
:101E90000FB6F894DEBF0FBECDBFDF91CF9108958E
:101EA0001F93CF93DF931F92CDB7DEB710919B03A3
:101EB0008091EF02181719F48FEF9FEF11C081E0A6
:101EC000810F182F1F71812FA82FB0E0A354BC4F92
:101ED0009C91182F998310939B038981882F90E000
:101EE0000F90DF91CF911F9108951F93CF93DF93B0
:101EF0001F921F92CDB7DEB79A83898310919B03FF
:101F00008091EF02181711F480E012C081E0810F78
:101F1000182F1F71812F90E083549C4FFC0180810A
:101F2000282F89819A81FC01208310939B0381E0F3
:101F30000F900F90DF91CF911F910895CF93DF9372
:101F4000CDB7DEB780919B03882F90E001968F710B
:101F5000992783549C4FFC018081DF91CF91089594
:101F6000CF93DF931F92CDB7DEB780915503982FA3
:101F7000292F80911003281711F480E00EC0892FBB
:101F80008F5F8F71982FA92FB0E0A456BC4F8C9112
:101F90008983892F8093550389810F90DF91CF9199
:101FA0000895CF93DF9300D0CDB7DEB79A838983AE
:101FB0006B8329813A814B81F9014A9521F0D0DF69
:101FC00081938111FACF108200000F900F900F9033
:101FD000DF91CF910895CF93DF9300D0CDB7DEB7D7
:101FE0009A8389836B8329813A814B81F9014A95D0
:101FF00051F0B6DF8823E9F38D3011F08193F7CFEC
:10200000AFDF8823E9F3108200000F900F900F904C
:10201000DF91CF910895CF93DF9300D0CDB7DEB796
:102020009A8389836B8329813A814B81F90198DFF7
:102030008132E8F381934A954A9561F091DF8823D4
:10204000E9F38D3021F0813228F08193F5CF88DFDC
:102050008823E9F3108200000F900F900F90DF911A
:10206000CF910895CF93DF9300D000D01F92CDB7CA
:10207000DEB767E0CE0101960E940B10CE010196FB
:102080000E94061327960FB6F894DEBF0FBECDBF91
:10209000DF91CF910895CF93DF93CDB7DEB72C9723
:1020A0000FB6F894DEBF0FBECDBF6CE0CE01019637
:1020B0000E940B10CE0101960E942413DC01CB017B
:1020C000BC01CD012C960FB6F894DEBF0FBECDBF7C
:1020D000DF91CF910895CF93DF93CDB7DEB7A0976F
:1020E0000FB6F894DEBF0FBECDBF60E2CE01019601
:1020F0000E940B10CE0101960E940213DC01CB015D
:10210000BC01CD01A0960FB6F894DEBF0FBECDBFC7
:10211000DF91CF9108951F93CF93DF931F92CDB797
:10212000DEB71091550380911003181719F48FEF43
:102130009FEF11C081E0810F182F1F71812FA82FF1
:10214000B0E0A456BC4F9C91182F9983109355036F
:102150008981882F90E00F90DF91CF911F91089592
:102160001F93CF93DF931F921F92CDB7DEB79A8351
:1021700089831091550380911003181711F480E0A2
:1021800012C081E0810F182F1F71812F90E08456BB
:102190009C4FFC018081282F89819A81FC0120833A
:1021A0001093550381E00F900F90DF91CF911F9115
:1021B0000895CF93DF93CDB7DEB780915503882F75
:1021C00090E001968F71992784569C4FFC01808185
:1021D000DF91CF910895CF93DF9300D0CDB7DEB7D5
:1021E00089837B836A838A819B81FC0184859585B1
:1021F00082309105C9F08330910501F1019751F0CA
:1022000089818A3019F48DE00E94E30189810E945E
:10221000E3011EC089818A3019F48DE00E946A04AE
:1022200089810E946A0414C089818A3019F48DE082
:102230000E94F10689810E94F1060AC089818A30D4
:1022400019F48DE00E94780989810E9478090000C4
:1022500080E090E00F900F900F90DF91CF91089564
:10226000CF93DF9300D01F92CDB7DEB79C838B83D3
:102270008B819C81FC01848595858230910539F1A3
:1022800083309105A9F1019789F00E94DA0C9A83B5
:10229000898389819A819923C4F389810E94E3010A
:1022A000082E000C990B9A83898333C00E94150E67
:1022B0009A83898389819A819923C4F389810E94B1
:1022C0006A04082E000C990B9A83898322C00E940D
:1022D000500F9A83898389819A819923C4F38981D4
:1022E0000E94F106082E000C990B9A83898311C075
:1022F0000E948B109A83898389819A819923C4F3E0
:1023000089810E947809082E000C990B9A83898391
:1023100000008981882F90E00F900F900F900F9010
:10232000DF91CF9108950F930FB7EF93FF93E09153
:102330003203F0915703E395EF71EF1305C0F0916D
:10234000C100FF7DF093C100E0933203F0E0E3525F
:10235000FC4FE081E093C600FF91EF910FBF0F911A
:10236000189500000F930FB79F939091C600EF93BD
:10237000FF93E0917803F0913303E395EF71FE173B
:1023800031F0E0937803F0E0EF5EFC4F9083FF9133
:10239000EF919F910FBF0F91189500000F930FB70A
:1023A000EF93FF93E0917903F091BC03E395EF7114
:1023B000EF1305C0F091C900FF7DF093C900E093D1
:1023C0007903F0E0EB5CFC4FE081E093CE00FF91FD
:1023D000EF910FBF0F91189500000F930FB79F93C8
:1023E0009091CE00EF93FF93E0919A03F091310327
:1023F000E395EF71FE1731F0E0939A03F0E0E85AAD
:10240000FC4F9083FF91EF919F910FBF0F91189513
:1024100000000F930FB7EF93FF93E091EE02F0915E
:10242000FD03E395EF71EF1305C0F091D100FF7D3F
:10243000F093D100E093EE02F0E0E658FC4FE0812B
:10244000E093D600FF91EF910FBF0F911895000018
:102450000F930FB79F939091D600EF93FF93E09166
:10246000EF02F0919B03E395EF71FE1731F0E093DB
:10247000EF02F0E0E354FC4F9083FF91EF919F91C6
:102480000FBF0F91189500000F930FB7EF93FF93B5
:10249000E0915603F0913403E395EF71EF1305C01B
:1024A000F0913101FF7DF0933101E0935603F0E0AC
:1024B000E051FD4FE081E0933601FF91EF910FBFB6
:1024C0000F91189500000F930FB79F9390913601CD
:1024D000EF93FF93E0911003F0915503E395EF71B3
:1024E000FE1731F0E0931003F0E0E456FC4F9083C8
:1024F000FF91EF919F910FBF0F9118950000CF931F
:10250000DF93CDB7DEB70000DF91CF910895CF9371
:10251000DF93CDB7DEB76D970FB6F894DEBF0FBE71
:10252000CDBF88E090E09C838B8384EC90E02B818E
:10253000FC0120838B819C81292F332785EC90E03F
:10254000FC01208381EC90E028E9FC01208380E0FD
:1025500092E0909301048093000480E092E09093D5
:10256000FF038093FE03789488EA92E00E94390288
:102570008DEB92E00E94EA13CE01059669E10E947C
:10258000200C8FEC92E00E9439020E94810C9A8309
:10259000898381EE92E00E94390289819A810E94AA
:1025A0007E028BEE92E00E9439020E94810C9A8397
:1025B000898380E090E06D960FB6F894DEBF0FBE81
:1025C000CDBFDF91CF910895EF920F931F93CF93DB
:1025D000DF93E80134E047FD34E1042E000C550B95
:1025E00057FF03C0519541955109E32E022F242F27
:1025F000AE010E941514CE01DF91CF911F910F9172
:10260000EF900895662777270C948E15FC01882794
:102610009927E89421912032E9F3293010F02E30E7
:10262000C8F32B3241F02D3239F4689404C00E9473
:102630009013820F911D219120532A30C0F31EF474
:10264000909581959F4F08951F93FC0199278827A6
:10265000BC01E89411911032E9F3193010F01E30EA
:10266000C8F31B3251F01D3249F4689406C00E9431
:102670007B13610F711D811D911D119110531A3033
:10268000B0F33EF490958095709561957F4F8F4F94
:102690009F4F1F9108954532510520F4423010F0AC
:1026A0000C945613FB011082CB010895BB274A30CE
:1026B00031F4992322F4BDE2909581959F4F0C94BB
:1026C000D1132532310520F4223010F00C946C1314
:1026D000FA011082CA010895BB272A3051F49923C8
:1026E00042F4BDE290958095709561957F4F8F4F34
:1026F0009F4F0C94A413592F482F372F262F660F66
:10270000771F881F991F660F771F881F991F620FF9
:10271000731F841F951F660F771F881F991F0895C9
:102720007AE0979F902D879F802D910D1124089519
:102730002532310520F4223010F00C94A313FA0155
:102740001082CA010895BB27FA01A62F62177105EE
:1027500081059105330B30FB66F0AA27660F771FC2
:10276000881F991FAA1FA21710F0A21B639538504B
:10277000A9F7A05DAA3308F0A95DA19336F7B111BE
:10278000B1931082CA010C94E5174532510520F42B
:10279000423010F00C94D013FB011082CB0108954D
:1027A000BB27FB015527AA27880F991FAA1FA4172B
:1027B00010F0A41B83955051B9F7A05DAA3308F01F
:1027C000A95DA193009779F7B111B1931192CB0153
:1027D0000C94E5170F931F93CF93DF93E0910004C0
:1027E000F09101042381EC0110E000E021FD08C01C
:1027F0000FEF1FEF14C01995892B11F00FEF1FEF8A
:1028000089916091000470910104DB011896ED91AB
:10281000FC918111F0CF8AE01995892B49F7C80105
:10282000DF91CF911F910F9108958F929F92AF9258
:10283000BF92CF92DF92EF92FF920F931F93CF93AD
:10284000DF9300D000D000D0CDB7DEB76A01F22E02
:10285000B02E102FFBE3AF2EA01608F41BE31F5F72
:10286000012F27E0AE014F5F5F4F0E94EC16BC01C5
:102870008981982F9970913009F44EC09BE2E1FC58
:1028800004C09E2D9170E0FC49C05E2D5071E82F70
:10289000E87083FF55C084E0911101C083E0EF2D03
:1028A000E81B8F1508F0E0E0D6018E2F20E25523BB
:1028B000C9F1992329F0D6019C93C60101966C01B8
:1028C00096012D5F3F4FE2FE33C08EE4D6018C931C
:1028D00091E411969C93119712968C93D9018E2FA7
:1028E00090E281112AC0E20FF32FF11D10828EEFCA
:1028F0009FEF29960FB6F894DEBF0FBECDBFDF91D4
:10290000CF911F910F91FF90EF90DF90CF90BF90EC
:10291000AF909F908F9008959DE2B7CF90E2B5CF92
:102920002D9381508111FCCFCE0ED11CE0E0C1CFA0
:102930008EE6D6018C9391E6CCCF9D938150D1CF7A
:10294000482F447082FF3DC084E0911101C083E0B4
:102950008F1510F4EF2DE81BD6018E2F20E25523A2
:1029600009F1992329F0D6019C93C60101966C01C7
:1029700096012D5F3F4FE2FE1BC089E4D6018C9388
:102980008EE411968C93119786E412968C93D9015C
:102990008E2F90E2882309F4A6CF9D938150FACF21
:1029A0002D9381508111FCCFCE0ED11CE0E0D9CF08
:1029B00089E6D6018C938EE611968C93119786E664
:1029C000E4CF9B0177FF02C030E020E0A1E0B0E05F
:1029D000911102C0B0E0A0E0F9013196AE0FBF1F27
:1029E0008B2C912CBB2009F461C05401EFEFAE1A7F
:1029F000BE0AAA0DBB1DFA161B0619F014F04F2DC6
:102A00004A1B511188C0E3FC59C07601A42FB0E2E3
:102A1000A1114FC0C40ED11C992309F45BC040E042
:102A2000D6011196F60190836D01552309F448C033
:102A3000012F060F9A81582F507184FF03C09133E4
:102A400009F4015010160CF047C0093008F008E0F6
:102A5000EEE2FE2E5B01A01AB108850191948194EB
:102A600091082F3F320729F4D601FC92F6013196E6
:102A70006F016217730794F1021713077CF5DB01EE
:102A8000A21BB30BAA24A394B12CAC0EBD1EAA0D9D
:102A9000BB1D11968C9121503109D6011196281534
:102AA0003905F4F0F60180836D01DBCFB12CA12C48
:102AB000A0CFF701B1937F01A150AACF9111B0CF60
:102AC000D601942F50E302C05D9391509111FCCF39
:102AD000C40ED11C40E0ACCF01E0BACF80E3DBCF25
:102AE0006217730731F4963388F4953311F4552344
:102AF00069F0F6018083FD01842F90E2811108C006
:102B0000A40FB11D1C9290E080E0F3CE81E3F1CFE1
:102B100091938150F3CF911183CF8ACF8F929F925F
:102B2000AF92BF92CF92DF92EF92FF920F931F93DB
:102B3000CF93DF935C017B016115710519F0DB0117
:102B40008D939C9385010F5F1F4FF501D0818D2FD1
:102B500090E00E94C4176C01892BB9F5DD32B9F5FC
:102B60000F5F1F4FD5011196DC91C1E05801F1E0D4
:102B7000AF1AB10843E050E064EF70E0C5010E9475
:102B8000CD17892B69F5680182E0C80ED11C45E09C
:102B900050E06FEE70E0C6010E94CD17892B21F442
:102BA000680197E0C90ED11CE114F10419F0D701B6
:102BB000CD92DC9260E070E080E89FEFC111FFC031
:102BC00060E070E080E89FE7FAC05801BBCFDB32DD
:102BD00029F485010E5F1F4FF501D181C0E0C6CFFA
:102BE00043E050E06CEE70E0C5010E94CD17892BE8
:102BF000E9F0F80110E000E020E030E0A9015F0119
:102C0000B0ED8B2E8D0E89E08815C8F19C2E68944E
:102C100091F88C2F8870C2FF16C0811102C00F5F1F
:102C20001F4F3196D501DC91C92DE9CFE114F10494
:102C300029F00E5F1F4FF7011183008360E070E001
:102C400080EC9FE7BCC0882311F001501109A5E07A
:102C5000B0E00E941C199B01AC01220F331F441FDE
:102C6000551F280D311D411D511D283999E939077E
:102C7000490799E15907A8F2C6609C2ED2CFAEEF62
:102C80008A1206C0C3FD3CC09C2E689493F8C9CF3D
:102C9000DF7DD534A9F580818D3239F4C061DF0143
:102CA0001296818162E070E006C0DF018B32C1F3D1
:102CB000119661E070E080535D01A61AB70A8A3070
:102CC000F8F4E0E8CE16ECE0DE065CF4B601660F40
:102CD000771F660F771FC60ED71ECC0CDD1CC80EE3
:102CE000D11C5D01FFEFAF1ABF0A8C9180538A306F
:102CF000A8F1C4FF03C0D194C194D1080C0D1D1DCF
:102D0000C1FF09C0E114F10431F081E0A81AB10853
:102D1000D701AD92BC92CA01B9010E94FA17C370E3
:102D2000C33009F490584B015C0120E030E0A90168
:102D30000E94F517882309F440C0C3E2D1E017FFD1
:102D400005C0119501951109CBE0D1E06E01B8E104
:102D5000CB1AD10880E2E82EF12C0FC0D501B1CFFB
:102D6000FE0125913591459154910E191F09C50118
:102D7000B4010E945B184B015C01D501C4010E1522
:102D80001F0574F72497F594E794CC16DD06A9F790
:102D90008A2F880F8B2F881F8F3F49F020E030E06B
:102DA000A901C501B4010E94F517811106C082E294
:102DB00090E09093050480930404C501B401DF9171
:102DC000CF911F910F91FF90EF90DF90CF90BF9028
:102DD000AF909F908F900895283008F027E0332718
:102DE000DA01990F311D87FD91600096610571052B
:102DF00039F432602E5F3D9330E32A95E1F7089570
:102E00009F3F30F080387105610509F03C5F3C5F01
:102E10003D93913008F08068911DDF93CF931F930D
:102E20000F93FF92EF92192F987F9695E92F969521
:102E30009695E90FFF27EF57FE4F99273327EE248A
:102E4000FF24A701E70105900894079428F4360FA2
:102E5000E71EF81E491F511D660F771F881F991F17
:102E60000694A1F70590079428F4E70EF81E491F71
:102E7000561FC11D770F881F991F661F0694A1F763
:102E80000590079428F4F80E491F561FC71FD11D3F
:102E9000880F991F661F771F0694A1F70590079466
:102EA00020F4490F561FC71FD81F990F661F771FA1
:102EB000881F0694A9F784911095177041F0D69554
:102EC000C79557954795F794E7941A95C1F7E7E2A8
:102ED000F1E0689415901591359165919591059063
:102EE0007FE27395E118F10A430B560BC90BD00929
:102EF000C0F7E10CF11E431F561FC91FD01D7EF401
:102F0000703311F48A95E6CFE894015030F0080F41
:102F10000AF40027021708F4202F2395022F7A3392
:102F200028F079E37D932A95E9F710C07D932A95DF
:102F300089F6069497956795379517951794E11834
:102F4000F10A430B560BC90BD00998F023957E91DB
:102F500073957A3308F070E37C932013B8F77E9171
:102F600070617D9330F0839571E37D9370E32A95D2
:102F7000E1F71124EF90FF900F911F91CF91DF9116
:102F8000992787FD9095089591110C94C818803267
:102F900019F089508550C8F70895FB01DC014150B4
:102FA000504088F08D9181341CF08B350CF4805E9C
:102FB000659161341CF06B350CF4605E861B611109
:102FC00071F3990B0895881BFCCFDC01FC01672F7E
:102FD00071917723E1F7329704C07C916D937083F0
:102FE0006291AE17BF07C8F308950E94371808F41E
:102FF00081E00895E89409C097FB3EF49095809590
:10300000709561957F4F8F4F9F4F9923A9F0F92FAE
:1030100096E9BB279395F695879577956795B7952C
:10302000F111F8CFFAF4BB0F11F460FF1BC06F5F12
:103030007F4F8F4F9F4F16C0882311F096E911C024
:10304000772321F09EE8872F762F05C0662371F045
:1030500096E8862F70E060E02AF09A95660F771F59
:10306000881FDAF7880F9695879597F90895990F35
:103070000008550FAA0BE0E8FEEF16161706E80742
:10308000F907C0F012161306E407F50798F0621B63
:10309000730B840B950B39F40A2661F0232B242B38
:1030A000252B21F408950A2609F4A140A6958FEF57
:1030B000811D811D08950E946E180C94E2180E94D3
:1030C000D41838F00E94DB1820F0952311F00C94EE
:1030D000CB180C94D11811240C9416190E94F318D3
:1030E00070F3959FC1F3950F50E0551F629FF0015B
:1030F000729FBB27F00DB11D639FAA27F00DB11D74
:10310000AA1F649F6627B00DA11D661F829F2227FC
:10311000B00DA11D621F739FB00DA11D621F839F83
:10312000A00D611D221F749F3327A00D611D231F59
:10313000849F600D211D822F762F6A2F11249F57A7
:1031400050409AF0F1F088234AF0EE0FFF1FBB1FAA
:10315000661F771F881F91505040A9F79E3F510569
:1031600080F00C94CB180C9416195F3FE4F3983E52
:10317000D4F3869577956795B795F795E7959F5F13
:10318000C1F7FE2B880F911D9695879597F90895A5
:1031900099278827089597F99F6780E870E060E095
:1031A00008959FEF80EC089500240A9416161706E0
:1031B00018060906089500240A9412161306140628
:1031C00005060895092E0394000C11F4882352F08B
:1031D000BB0F40F4BF2B11F460FF04C06F5F7F4F43
:1031E0008F4F9F4F089557FD9058440F551F59F02A
:1031F0005F3F71F04795880F97FB991F61F09F3FE4
:1032000079F087950895121613061406551FF2CF0C
:103210004695F1DF08C0161617061806991FF1CF5C
:1032200086957105610508940895E894BB27662783
:103230007727CB0197F908950E942719A59F900D34
:10324000B49F900DA49F800D911D11240895A29FFD
:10325000B001B39FC001A39F700D811D1124911D6A
:10326000B29F700D811D1124911D0895F894FFCF18
:103270000000000300000000EB103011000000000F
:1032800000010000000000003011000000000002FA
:1032900000000000EB100000000000000003000030
:1032A0000000EB10301101000000000100000000E0
:1032B0000000301101000000000200000000EB10CF
:1032C000000001000000000300000000EB103011BE
:1032D00002000000000100000000000030110200A8
:1032E0000000000200000000EB10000002000000DF
:1032F000000300000000EB1030110300000000018B
:103300000000000000003011030000000002000077
:103310000000EB100000030068656C6C6F206672A3
:103320006F6D20757361727420300D0A0068656CD2
:103330006C6F2066726F6D207072696E74660067C4
:10334000696D6D69652061206E756D6265723A20E8
:0E335000006E756D626120613A20000D0A006A
:00000001FF
